:1000000019A001A02DA09702000093828202739094
:10001000523073500030735040309761000093812C
:10002000619A17A100001301E1F86F00600B1971CC
:1000300006C00AC20EC412C616C81ACA1ECC22CEE8
:1000400026D02AD22ED432D636D83ADA3EDC42DE58
:10005000C6C0CAC2CEC4D2C6D6C8DACADECCE2CEC8
:10006000E6D0EAD2EED4F2D6F6D8FADAFEDCF32203
:10007000103496DE73252034F32510340A86EF0001
:10008000200F73101534B72200009382028073A0F2
:10009000023082401241A2413242C2425243E24304
:1000A000724482541255A2553256C2565257E257E4
:1000B000725886481649A649364AC64A564BE64BF8
:1000C000764C865C165DA65D365EC65E565FE65F64
:1000D00009617300203000000000000000000000F3
:1000E000EF42D050B75700804111938707013EC2BD
:1000F00037570080B757008002C402C69387071C99
:100100001307071C9386018163FFF6029387018121
:1001100013870181938601BF63FDF602938701BFB8
:10012000138701C0637DF70237870080938701C082
:100130001307077B6379F7024C000545EF10307415
:1001400041016F40F04C10439107110723AEC7FEE9
:1001500065BF10439107110723AEC7FE75BF23A0EB
:1001600007009107C1B723A007009107E1B782807C
:10017000EF42D047AE846358050C06050581AD47B4
:100180006312F506F32740F19387072037040040F8
:10019000B207A29703A9470093870181131729008B
:1001A000BA979C438297F32740F193870720B207C1
:1001B000A29723A2270185476313F502F32740F195
:1001C000960713575900BA978A073E9489673E9459
:1001D0001C40331525011345F5FF7D8D08C026858C
:1001E0006F4010439D476317F50413040008F3376D
:1001F00044309528B7C7004403A887FF83A8C7FFEA
:10020000F32740F1938601BF9842CC4242973335A1
:1002100007013A86056713070780BA978E073707E5
:100220000044BA97C695B306B50090C3D4C37324EF
:10023000443075B78D476318F5001520B7070044A3
:1002400023A0070069BFF3274034F3273034F32796
:100250005030F3270034F3270030029049B7EF42C3
:10026000F0382945512082800145828001458280F5
:10027000014582800145828001458280014582805E
:10028000014582800145828001458280014582804E
:10029000014582800145828001458280014582803E
:1002A000014582800145828001458280014582802E
:1002B000014582800145828001458280014582801E
:1002C000014582800145828001458280014582800E
:1002D00001458280014582800145828001458280FE
:1002E000014582800145828001A00CC182800841C5
:1002F0008280368E331EBE00337ECE00032305007F
:10030000B28393C3F3FF337373003363C3012320BA
:10031000650082800841718D3355B50082802310BD
:10032000B5008280031505008280368E331EBE0024
:10033000337ECE0003130500B28393C3F3FF337300
:1003400073003363C3012310650082800315050029
:10035000718D3355B50082802300B500828003057E
:1003600005008280368E331EBE00337ECE0003032E
:100370000500B28393C3F3FF337373003363C30188
:1003800023006500828003050500718D3355B5009B
:10039000828039C99D4763E9D70489676376F6048B
:1003A000EF4230232E8932849375F60FAA84158488
:1003B00013058900B6891374847F793F1305C9003A
:1003C000B3653401513F1305090123A02401413FC6
:1003D000098909E5238204006F40F0228840110555
:1003E000BD3F88404105E5B7828015C98DC905CA62
:1003F000EF42D01F2A892E84B384C5006314940071
:100400006F401021032509004105913F05897DD9E1
:10041000834504000325090005043D3FC5B78280DC
:10042000EF42301B814415C18DC105C23289AE89AE
:100430002A8408404105253783474400C98F230299
:10044000F400098919C16395240126856F40B01B0A
:10045000084011052937B38799002380A700850438
:10046000C9BF15C58DC5EF427018AA842E84834775
:10047000040099E36F40D01988404105CD350589C6
:1004800065DD8345040088400504F935CDB78280D9
:10049000EF4250132A8C03A581BF2E8B32898945E8
:1004A00011463105B68ABA843E8AC28BA535631BD4
:1004B000050C138481BF0840094685453105993DE7
:1004C000AA890545639B090693157A00137CFC07EE
:1004D0000840B3E58501C205C18111053935630BBB
:1004E0000900084093552900510501350840D2857F
:1004F0007105E53B81CC084093D524006105F533B7
:100500000840B3854B0113050502C53308408546F5
:10051000054681453105F13B63130902A1E008401E
:100520000546814513050503F5338547E309F5FEC7
:10053000084021056D3B1375F50F6F40300C1359C2
:100540002900014A0840E37B2AFD93172A00DA9725
:100550008C4313058502050A493BEDB78980E3F01A
:1005600099FC08400946854513050503653375D98F
:1005700008401305C502A53B93972900D69788C369
:100580008509F1BF094555BF23ACA1BE8280EF426A
:10059000F005AE87AA8601484147014681450145DD
:1005A000C53D6F40F006EF427004AE87AA86014851
:1005B00013074002014681450945D93D6F4050056A
:1005C000EF42D0022A840841814605468145593BC5
:1005D00008408D457105493308409305F00F11051A
:1005E000A53B0840854605468145AD3B6F4050021E
:1005F00025C5EF42A07FAE84B1CD2A8432898145E2
:10060000130680041105EF4030169307F9FFC20767
:1006100004C0C1837D476373F700054981460546E1
:100620008145268523122405353B08408145130565
:1006300045021D3308408D457105393B084093053F
:10064000F00F1105113B0840814561053133084029
:100650008D4519336F40C07B82800DCDEF4200790C
:100660002A840841814605468145ED390840232406
:1006700004048D457105CD3108409305F00F110537
:10068000E139084081456105C13908408D45E931AE
:100690006F400078828031C59D4763E4B704EF4224
:1006A000E0742A840841AE8409468545E93905C9C4
:1006B00008404146914513050502F1318547631411
:1006C000F5002285F53D08401305450249391C40D7
:1006D0008545B3959500C98D13854702B5396F409F
:1006E0002073828021C99D4763E6B704EF42007002
:1006F0002A840841AE8409468545713115C90840F0
:100700004146914513050502BD3985476314F5003F
:1007100022857D35084013054502913185451C40F1
:10072000B395950093C5F5FFE98D138547022D31EB
:100730006F40006E8280EF42606B411102C615CDA2
:100740002A840841AE840946854535391DC50840CF
:100750008D45710511310840A68513058502713656
:100760000840094685451305050231398547E319D7
:10077000F5FE08402105A53E2AC6324541016F40DD
:10078000206963060526EF42E0632A890841328A20
:10079000AE8B09468545BA8A368BF53635CDD29A69
:1007A000638C0A06032509008D45FD1A71056D3617
:1007B000032509004146914513050502E9368547A1
:1007C0006314F5004A85ED3B032509008146054683
:1007D0008145493E014403250900637E5405835742
:1007E0004904636DF40203250900854605468145E9
:1007F000953EA28481496364440763ED490B014A35
:1008000063615411630D5415B389494133043A01AE
:100810004204418063F58A1A6F40405E310581458C
:1008200063764401B3878B0083C507000504420447
:100830006D3C41804DB7E31854FB83574904E37482
:10084000F4FA13058502814563764401B3878B0072
:1008500083C5070005044204493C418069B78357BA
:10086000490463F3F402B3878B000325090083C5B1
:100870000700631F54031305850205048504420421
:10088000C204A5344180C180032509001146894571
:1008900013050502CD3C25F1032509008509FD144A
:1008A0002105C209C204A13493D90901C180A1B7AD
:1008B0003105E1B78357490463FFF400637D5401B8
:1008C0000325090005048504814531054204C2045D
:1008D000293C4180C1800325090011468945130543
:1008E00005025534E31B05F0032509008509FD14B5
:1008F0002105C209C204EFF09F9F93D90901C1806D
:10090000EDBD8357490463FEF40003250900050487
:100910008504814531054204C204EFF01F9D4180EA
:10092000C180032509001146894513050502A13C34
:10093000E31805EC032509008509FD142105EFF0F6
:100940001F9BB3074B01050A420AC209C204238058
:10095000A700135A0A0193D90901C18055B58357DD
:10096000490463FFF400032509000504850481455B
:10097000130585024204C204EFF03F974180C18015
:10098000032509001146894513050502EFF0BF9FB5
:10099000E31A05E6032509008509FD142105EFF09A
:1009A0001F95B3074B01050A420AC209C2042380FE
:1009B000A700135A0A0193D90901C180A1B50325E3
:1009C00009001146894513050502EFF0DF9BE3138B
:1009D00005E4032509002105EFF07F91B3074B01E2
:1009E000050A420A2380A700135A0A0105B582802E
:1009F000EF42C03F2A842E8541110CC0210581455C
:100A000036C432C6EFF05F95084081453105EFF0FE
:100A1000BF9432460840B285EFF03F8DA2460840B1
:100A2000B6851105EFF07F8C084081454105EFF058
:100A3000DF8B084081456105EFF03F8B0840814521
:100A400013050502EFF07F8A0840814513058502F2
:100A5000EFF0BF890840814513050503EFF0FF88DB
:100A60000840814513058503EFF03F880840814524
:100A700013050504EFF07F870840814513058504C1
:100A8000EFF0BF860840814513050505EFF0FF85AF
:100A90000840814513058505EFF03F8508408145F5
:100AA00013050506EFF07F84084081451305850690
:100AB000EFF0BF830840814513050507EFF0FF8283
:100AC0000840814513058507EFF03F8208408145C6
:100AD00013050508EFF07F8108408145130585085F
:100AE000EFF0BF8041016F40A0321387F5FFBD4793
:100AF00063E7E704EF42802FB757008093878701B1
:100B0000AE9703C40700A147AA84084163EFB7006A
:100B10002105EFF0DF84B365A400884093F5F50F5D
:100B20002105EFF07F836F40A02E3105EFF03F836A
:100B3000B365A400884093F5F50F3105DDB78280D9
:100B40001387F5FFBD4763E9E704EF42202AB75753
:100B5000008093878701AE9703C40700A147AA844A
:100B60001344F4FF08411374F40F63EEB70021053A
:100B7000EFF0EFFE9C40B375850013858700EFF022
:100B8000AFFD6F40E0283105EFF06FFD9C40B3757D
:100B900085001385C700E5B782809386F5FF3D4742
:100BA0006367D704EF42E022328901E6513F6F408C
:100BB00080253757008093992500130707074E9724
:100BC0001C432A840841AE8481453E95EFF0EFF145
:100BD000B75700809387C702CE9708409C43CA85C9
:100BE0003E95EFF08FF0A68522850137C9B7828048
:100BF000EF42C01F2A840CC0AE8450C1138905087F
:100C0000268581459104EFF02FF5E39B24FF5C409E
:100C10000547638EE70085CF09476398E7000840E2
:100C2000FD5513050508EFF04FEC6F40601E0840BE
:100C3000C1649385F4FF13050508EFF04FEE0840FB
:100C40009385F4FF13054508EFF06FEDF9BF0840F9
:100C50009305F00F13050508EFF00FF0084093051A
:100C6000F00F13054508EFF02FEF08409305F00F44
:100C700013058508EFF04FEE08409305F00F1305BC
:100C8000C508EFF06FED55B7EF42A014444105449D
:100C9000AA8A2E89B289638D8402ADC88947639779
:100CA000F4020841331424011305050AEFF02FE480
:100CB000B365A400639609001344F4FFB375A40060
:100CC00003A50A001305050AEFF02FE26F40A013F9
:100CD0001C4113DA45000A0A130A0A0A1374F900C0
:100CE0003E9AB39484005285C204EFF0AFE3C1840E
:100CF000639C090093C4F4FFE98C93950401C181BE
:100D00005285EFF0CFE1D9B7C98CC5BF1C4193D450
:100D100035008A049384040A13797900BE9433144D
:100D2000240126856204EFF08FE36184639B090050
:100D30001344F4FF698C9375F40F2685EFF0CFE12F
:100D400071B7498CCDBFEF42600A41118E05230473
:100D5000B100780030008946894523160100A304BC
:100D60000100EF00D01B8347C1000345D100A2075B
:100D70005D8D41016F40C009EF42400789472A89D4
:100D8000B28409446385F500FD1513B41500AE0463
:100D9000A2854A85C204EFF01F90C180A6854A85CE
:100DA000EFF07F99A6854A85EFF0FF98AA84A28587
:100DB0004A85EFF03F931395040141816F40400550
:100DC000EF42C002AE84834505002A84484186056F
:100DD00093F5E50FB12E01E94840A685E12C3335A6
:100DE000A0006F40E0020545EDBFEF4220002A84DD
:100DF000B284F93709C505494A856F4060018345CA
:100E000004004840860593E5150093F5F50F0D267F
:100E10002A8975F148408545F12281460147854878
:100E20001D482146B397E800E98FB3D7E740B305E3
:100E3000E840B397B700DD8E050793F6F60FE3138E
:100E4000C7FE2380D40048400D2C7DB7EF32107AC6
:100E5000411132C6AA84AD37324611C505442285F8
:100E600041016F30F07AC840B285A9242A847DF50B
:100E7000C8402124EDB7EF32707741112E8413065C
:100E8000F10081452A89953709C5054541016F3033
:100E900030781306F10085454A858344F100B13767
:100EA0006DF58347F100A207C58F2310F400F9BF49
:100EB000EF32D07341112E841306F10089452A893F
:100EC0002D3709C5054541016F3090741306F100B7
:100ED0008D454A858344F100093F6DF58347F10054
:100EE000A207C58F2310F400F9BFEF323070411113
:100EF0001306F100BD452A84CD3D15E10346F100FE
:100F00002285BD4513661600A307C10081372A84D8
:100F10000945EF300019228541016F30706F05449B
:100F2000DDBFEF32B06C41111306F100B9452A84E0
:100F30006D3D09ED0346F100B945228513660608AB
:100F4000A307C100213741016F30906C0545E5BF13
:100F5000EF32D069411150C12300B5002A84230724
:100F60000100A3070100753F2945EF3080131306E8
:100F7000E1009305E00F22858D3D1DE11306F10090
:100F80009305F00F2285953501ED0347E1009307A6
:100F9000000D6317F7000347F1009D476303F70057
:100FA000054541016F30D066EF3250642A842E85AA
:100FB00014C0A304E400B28548C02304C40005465D
:100FC000B5298345840048400146FD2683459400A9
:100FD00008400546A5218345940008400146E92EB6
:100FE0006F301063EF32F05E2A84AE89834585004E
:100FF00048410546014999218345840048400546FA
:1010000081445D2E214A1145EF30000B8345940049
:10101000084005462521834584004840292B19C5F1
:101020008547B3972701DD8C93F4F40F8345940033
:101030000840014605091921E31749FD834584004D
:1010400048400146952E8345840048404E86FD2643
:101050008345940008400546D5261145EF30C0056C
:101060008345940008400146D12E484083458400C2
:101070000146E92626856F301059EF3230572A8411
:101080008345850048410146552E1145EF30C00289
:10109000834594000840054655261145EF30C001B0
:1010A0008345840048400546512E1145EF30C0006D
:1010B0006F301056EF32F0512A84AE89A1441309E3
:1010C000000883458400484033F62901FD14BD26FD
:1010D000834594000840054613591900852611459B
:1010E000EF20907D8345940008400146812EF1F861
:1010F0008345840048400546C12483459400084048
:1011000005462D2E834584004840352183459400B3
:101110000840014625268345840048400146692C45
:101120004840834584000146112E01456F30B04D83
:10113000EF32D04B2A84AE848345950008410546A2
:10114000F52C8345840048400546CD2C1145EF2001
:10115000B0768345840048400146CD241145EF20F8
:10116000B0758345940008400146C92CA6852285A8
:1011700091376F30F049EF32D0452A842E85A3068F
:10118000E4002307040154C01CC4B2852306C40034
:1011900008C0054665248345C40008400146DD4477
:1011A000212C8345D40048400146054A412C834503
:1011B000D40048400146B7097F00FD2A8345E4007A
:1011C000084401467D599D2C8345E40008440146AE
:1011D000E5228345D400484001468D248345C40060
:1011E00008400146A12C0945EF20106D8345E4001D
:1011F00033169A000844337636013336C0003D2C4E
:101200000945EF20706B8345D40048400546FD1426
:1012100035240945EF20506A8345D40048400146F3
:10122000312C0945EF205069E39224FD8345C40029
:101230000840054621240945EF2010686F30B03C76
:10124000EF323039B7040F00C205E58D1A06D18D93
:10125000B70430002A84CD8C8345D500484101462F
:101260005D49E92A8345C40008400146054AF92240
:101270000945EF207064FD598345E40033162A01C7
:101280000844658E3336C000552A0945EF20D062E8
:101290008345D400484005467D194D220945EF207D
:1012A000B0618345D40048400146492A0945EF20F2
:1012B000B060E31339FD8345C40008400546BD2AEC
:1012C0000945EF20705F6F301034EF3230328347C2
:1012D00005004111A306B100834545019304850132
:1012E000860793E707042A8426852306F10023074F
:1012F000C100EFF04FBA014781460D466C002685CC
:10130000EFF02FC8834544012685EFF0AFBD4101C2
:101310006F301030EF32902D2A844111B284610574
:101320001306C00436C63AC4EF30B038B24622477E
:10133000C167FD17230A94002300D4005CC0232852
:10134000040023240400232604002302E406A94504
:1013500011C39545214622858D3F41016F30502BA9
:10136000EF32D02883474506411199C71376F60F0F
:10137000A93F41016F30D02983470500A306B10082
:101380008345450193048501860793E707042A8472
:1013900026852306F1002317C100EFF0CFAF6C00C4
:1013A0002685014781461146EFF0AFBD83454401D4
:1013B0002685EFF02FB375BF8346450613B715009A
:1013C000C14791C2A14763C8B70215E7EF321022A7
:1013D000FD1505475C41B315B7006319E60033E618
:1013E000F50050C18145AD3F6F30902293C5F5FFA8
:1013F00033F6F500FDB782800347450693B6150026
:10140000C14711C3A14763CAB70285EAEF32101E74
:10141000FD1585461C45B395B600631BD60033E623
:10142000F50010C5994511E3B1451D3F6F30501EC1
:1014300093C5F5FF33F6F500EDB782808346450688
:1014400013B71500C14791C2A14763C9B7021DE791
:10145000EF32D0191387F5FF85451C49B395E50098
:1014600011CA33E6F50010C9A54591E2C945CD3D45
:101470006F30101A13C6F5FF7D8EF5B78280EF32FC
:10148000F016834705004111A306B10083454501CD
:1014900093048501860793E717042A84268523068B
:1014A000F100A3050100EFF00F9F9306B10005477F
:1014B00009466C002685EFF0CFAC834544012685B4
:1014C000EFF04FA20345B10041016F307014EF32CD
:1014D000F01183474506411189C7553741016F30E7
:1014E000301383470500A304B100834545019304ED
:1014F0008501860793E717042A8426852304F100D3
:10150000EFF06F990947740009462C002685EFF02B
:101510004FA7834544012685EFF0CF9C0355C100BA
:1015200075BFEF32B00C83474506C94591C3A54549
:10153000793F6F30F00D8346450613B71500C1475C
:1015400091C2A14763C0B70211EFEF32300A2E8477
:10155000C93F7D148545B39585006D8D3335A00059
:101560006F30100B01458280EF3250082A841CC472
:10157000834701012E8508C0B285A309F400230822
:10158000C40054C0A308E400230904012326140165
:1015900005466D350840834504010146EFF0DFE163
:1015A00008408347450691C7834504010546EFF08F
:1015B000BFE48345140148400146EFF03FE848404E
:1015C000834514010146EFF03FDF4840834745065D
:1015D00091C7834514010546EFF01FE283452401BE
:1015E00008440146EFF09FE5084483452401054681
:1015F000EFF09FDC08448347450691C783452401EB
:101600000546EFF07FDF8345340148440546EFF09F
:10161000FFE24844834534010146EFF0FFD94844D6
:101620008347450691C7834534010546EFF0DFDC6B
:101630006F30007EEF32E079AA84814713F7F70F0D
:10164000636AB70032843309B6007D5A631A890091
:101650006F30607B3307F600230007008507F9BF72
:101660009D4983C5040188400146EFF03FDD130525
:10167000803EEF20102183C5040188400546EFF02D
:10168000FFDB83C524018844EFF0FFEA09C9034763
:1016900004008547B3973701D98F2300F400130561
:1016A000803EFD19EF20F01DE39D49FB050479BF45
:1016B000EF3220722A84B284338AC500631A9A00FA
:1016C0008345140148400146EFF05FD76F30A073A7
:1016D00021499309000883450401084001467D190A
:1016E000EFF0DFD503C6040083451401484033F60C
:1016F000C90093D91900EFF07FD41305803EEF2085
:1017000050188345040108400546EFF03FD3130508
:10171000803EEF201017E31009FC850445B7EF3237
:10172000E06C2A84AE8483453501484541113289F5
:10173000014636C63AC4EFF07FD01305800CEF2087
:1017400050144A86A6852285A5372247B2462285AF
:101750003A86B685EFF01FEE8345340148440546CE
:10176000EFF0DFCD41016F30A06AEF3220653774B2
:101770000080130484CB8347440037750080717167
:101780001305E5CB3EC2034D5400EF20700D23A698
:10179000A1C037750080130525CCEF20700C938411
:1017A000C1C0C8C037750080130565CCEF20500B51
:1017B000834724013779008088C43EC4EF20504518
:1017C000035769CBB7890080938689DC930717009C
:1017D000C207369793067006C1832300D7000146DF
:1017E000377700808946930569CB138589DC231BF5
:1017F000F9CA2316F7C8EF20B04E12468546930566
:1018000069CB138589DCEF20B04D224685469305D0
:1018100069CB138589DCEF20B04C014A4A8BCE8B13
:10182000138C4100014681451305F006EF20B00FEF
:101830002145EF207008014685451305F006EF208D
:10184000900E014685450D45EF20F00D014685457A
:101850001145EF20500D014681452945EF20B00C80
:10186000014685453145EF20100C0147814C938599
:101870004100054531469377F70F93F6C70FAE96B3
:1018800094428D8B8E07B3D7F60093F7F70F81CB79
:10189000B317E500B3EC9701C20C93DC0C0105070C
:1018A000E31BC7FC014485461308F00FB14DB39408
:1018B000860033F694019377F40F63010656C20451
:1018C000C1802686EA855945EF20502E2686A545FB
:1018D0003545EF20B02D85461308F00F0504E318B9
:1018E000B4FD85466A8693056BCB13858BDCEF20B0
:1018F000303F83A7C1CD0547924523ACE71023A213
:10190000E720014613053006EF20F00183A54100D2
:1019100003A7410083274C00832C4C0083248C00B8
:1019200003248C00939D0701C205C2044183C18139
:1019300093DD0D0193DC0C01C180418005462D45EE
:101940002310B1022311E1023AC02312B103231381
:1019500091032314910223158102EF20C07C0247DA
:1019600005463945BA85EF20007CEE8505463545AC
:10197000EF20607BE68509462D45EF20C07AA685DD
:1019800009463945EF20207A0946A2853545EF20E2
:101990008079930C0102E6878144994D8D45268517
:1019A00003D407003EC6EF306049130615001376D6
:1019B000F60F8D45268532C0EF30004B02461305E9
:1019C0000506A2851375F50FEF20E075894622867E
:1019D00093056BCB13858BDCEF209030B2478504E9
:1019E00093F4F40F8907E39BB4FB01468545130587
:1019F0004006EF2040732145EF20006C01468145F1
:101A000013054006EF20207202D602D802DA02DC6B
:101A100037F7FA0202DE9307070882C08D4D3EC6F3
:101A200032450144EF20E065668885489376F40FDF
:101A30008D45368542CE46CC36C8EF30E042C246B0
:101A40009377F50F8D4536853EC0EF30203F8247B6
:101A500005051376F50F13856706B2851375F50F27
:101A600032CAEF2080721C1993161400BE9682476A
:101A70005246239EA6F613859706B2851375F50F79
:101A800036C8EF208070C2467248E2482394A6F818
:101A900083D6C6F703560800F18E6303D60081484B
:101AA000050499470908E313F4F86398080093873D
:101AB000FDFF93FDF70FE3950DF6014701449317E2
:101AC00017003AC61819B30DF70003D6CDF78946AB
:101AD00093056BCB13858BDC3EC0EF20702003D6C3
:101AE0008DF8894693056BCB13858BDCEF20501F57
:101AF00083D6CDF74166824793C6F6FF93F6F60F7D
:101B00003247130806F01943854891C6B396F8008A
:101B1000558C420441801419BE9683D6C6F793C6ED
:101B2000F6FFB3F6060199C68507B397F8005D8CFA
:101B3000420441800507E31467F881478546B14DAB
:101B40003396F60042064182854535453EC0EF207A
:101B5000F005824785468507E394B7FF81477D56A8
:101B6000130700069408BE962380C6008507E39BF2
:101B7000E7FE82C282C482C6814D13052003EF2096
:101B800040500146814513050007EF20C05901462A
:101B9000854513055006EF2000592945EF20C05117
:101BA0000146814513055006EF20E057814713F6A3
:101BB000F70F8D4532853EC832C6EF3020283246B9
:101BC00005059376F50F8D45328536C0EF30C02977
:101BD00082461305C5061375F50FB685EF20E05A4A
:101BE000C247181993961700BA96239AA6F8850744
:101BF0001947E39EE7FA8146854593F7F60F13D61A
:101C00004700060618193A96035646F9BD8BB39756
:101C1000F500F18F99CB9C08B69703C60700130710
:101C2000F00F6314E6002380B701850693070006D2
:101C3000E395F6FC13871D00937DF70FA947E39EFC
:101C4000FDF201489317180018193E97035647F9FB
:101C5000894693056BCB13858BDC42C83EC63AC0E0
:101C6000EF2010080247C166B247035747F94248C0
:101C7000938806F01347F7FF1377F70F194E0543C4
:101C800011C73317F300598C4204418018193E974D
:101C9000035747F91347F7FF3377170119C785072C
:101CA000B317F3005D8C420441800508E31CC8F9BA
:101CB000814798083306F7003EC003460600B77711
:101CC0000080938567CBB7870080138587DC8546C6
:101CD000EF2010018247130700068507E39BE7FC0E
:101CE000A247638A071481440547331697004206CA
:101CF0004182B1453545EF20606B8504B14705470A
:101D0000E395F4FE0146854513050007EF20A04149
:101D10000146854513055006EF20E0402945EF2098
:101D2000A0390146814513055006EF20C03F014709
:101D30009374F70F8D4526853AC6EF3020100505C0
:101D40009377F50F8D4526853EC0EF30E011824731
:101D5000130515071375F50FBE85EF200043AA8400
:101D60002A868946930569CB138589DCEF20407765
:101D700083D70C0093C4F4FF3247FD8C93F7F40F24
:101D80009948054881CB93171700B317F8005D8C6D
:101D90004204418093F404F089C893171700850723
:101DA000B317F8005D8C420441800507890CE311EC
:101DB00017F9050A137AFA0F45C09947630EFA0816
:101DC0008D476317FA0813053D00B145EF30000C4D
:101DD000137DF50F23A201009387410023A2070082
:101DE00023A407000147938541001305F00F3146F6
:101DF000B356E440858A9377F70F89CE93F6C70FE1
:101E0000AE9603A806008D8B8E07B317F500B3E7D7
:101E100007019CC20507E31DC7FC29B413F6C70FD1
:101E200062968D8B0C428E07B317F80093C7F7FFAD
:101E3000ED8F1CC265B4FD1489460146930569CB3C
:101E4000138589DC93F4F40FEF208069EDF495B7E6
:101E50008947E3F9479DBDBF0144054AB1443316A4
:101E60008A0042064182814535450504EF20005431
:101E7000E31794FE035669CBB7750080138589DCA0
:101E8000894675169385C5C8EF208065B7770080B1
:101E900003A507C9938707C9835669CBCC4313862B
:101EA00089DCEF2010534D616F201075EF22107404
:101EB000411138002A84AE8402C402C681473A899F
:101EC00093F5F70F63EC95028345340148440146CE
:101ED000EFF0CFD60945EF20C01A939514004A863B
:101EE000228593F5E50FEFF0AFFC834534014844BC
:101EF0000546EFF0AFD441016F209071B305F600B5
:101F000083C50500090793F5F507230FB7FEB385D1
:101F1000F60083C505008507A30FB7FE55B7EF226E
:101F2000F06C411193E505F8A307B10036878545AC
:101F3000B2861306F100EFF08FFE41016F20506D65
:101F4000EF22D06A41119306110005469305000D5A
:101F50002A84A3000100EFF09FFC81579306310013
:101F60001306210085452301F1002285930760FBBC
:101F7000A301F100EFF09FF30945EF208012B7575E
:101F8000008003D7071C9387071C83C727003400F2
:101F900050002303F100930700118D452314F10035
:101FA0002285930740052312E1002305F100EFF09D
:101FB000FFEF13052003EF20C00C228574001146AB
:101FC0009305200F02C6EFF09FF50347C10083473A
:101FD000910005456310F7020347E1008347A10024
:101FE00005456319F7000345F100834781001D8D06
:101FF0003335A00041016F20B061EF22305FB28421
:10200000AE866946930580082A84EFF05FF1A686C4
:102010001D469305100E2285EFF07FF06F20505F74
:10202000EF22D05C4111AE84D1579306E100054602
:102030009305400F2A84A307F10023070100EFF066
:102040001FEE8347E1009306E1001306F10093E7DA
:102050001700854522852307F100EFF03FE537257E
:1020600026001305055AEF20C001A68621469305D8
:10207000700F2285EFF0BFEA41016F207059EF2207
:10208000F05337740080130101CB8546130504C952
:102090006946B7350070EFE0CFAFB7550080130643
:1020A000900293850517C811EF20B060130504C98D
:1020B000CC11EFE00FBB377A00800946B7050070FE
:1020C00013054AC1EFE0DFB20146814513054AC15D
:1020D000EFE09FBBB727007023AEF1CC0547B8C730
:1020E00023A6070422C839649304803E1304D4EA6B
:1020F000A285130510080546EF20E002854513056B
:102100001008EF208008630985601305803EFD14E8
:10211000EF10907AF1FC39649304803E1304D4EA02
:10212000A285130510080946EF10F07F89451305B5
:102130001008EF208005630B855E1305803EFD14BB
:10214000EF109077F1FC05641306F4FF85452145F7
:10215000EF20C0251306F4FF81452145EF2000251F
:102160000D4689451305F4FFEF20203A37850070AE
:10217000EFE08FC1B78A00802146B7450070138514
:102180000A5AEFE0EFC613850A5AEFE00FCD378405
:1021900000802146B75500701305C45EEFE04FC5BF
:1021A0001305C45EEFE06FCB378900802146B76529
:1021B000007013058963EFE0AFC313058963EFE097
:1021C000CFC9B78B00802146B775007013854B6867
:1021D000EFE00FC213854B68EFE02FC83784008013
:1021E0001305046D2146B7950070EFE06FC013052D
:1021F000046D37640080EFE04FC6130B44738144D5
:10220000130C4473114D938A0A5AA14D1309896323
:10221000938B4B68B14C1306C00463439D52DE851B
:102220008810EF20104993860402014793F6F60FB9
:1022300001465A858C108504EFF0CF8D130B8B0669
:10224000E39B94FD93858A091306C0048810EF2050
:10225000504605479306000209468C10138541C776
:10226000B75A0080EFF00F8B8144938A0A1B377BAB
:102270000080A14BB3879A0083C507000146130570
:102280004B808504EFF04F93E39674FF8144930AEB
:10229000000313D5440093079500139517003E954E
:1022A0000A053E9593F5F4000E0585040146850563
:1022B000629593F4F40FEFF02F90E39C54FD81446A
:1022C000930A000313D54400930795001395170054
:1022D0003E950A053E9593F5F4000E0585040146EA
:1022E0008505629593F4F40FEFF04F95E39C54FD50
:1022F000B76A008093844AC2814C938A4AC2377B72
:102300000080B77B0080377C0080377D0080B76D10
:102310000080B54763E8974513863C00054893075E
:1023200044730947930644731376F60F9305447379
:102330002685EFE05FE493881C0093FCF80F930779
:102340000006C104E397FCFCB76B0080930744735D
:10235000930644730548094731469385CB79138525
:1023600041CFEFE05FE19307447393064473054860
:10237000094735469385CB79138581C5EFE0BFDFEB
:102380009387018F3ED4938701A73ED69387019B05
:102390003ED8376B0080938701B3130B0B2A9384CD
:1023A00041D00144014C6ADEE6C03EDA93571C007E
:1023B00092073385FA0093870730D6979CC0232075
:1023C000AB0093771C006385074885472302FB0019
:1023D0008947A302FB0023820400A382F400A257D2
:1023E00083455B00050CA29703D60700137CFC0F06
:1023F000210BEFE0FFE4B2578345CBFF03258BFFB2
:10240000A29703D60700A104EFE09FE3C25783C55C
:10241000D4FF03A584FFA29703D60700EFE05FE295
:10242000D25783C5C4FF03A584FFA29703D6070034
:102430000904EFE0FFE093070006E319FCF601460C
:1024400085454145EF10304E014681451305100882
:10245000EF10704DC1650146ED1513052008EF1012
:10246000904C03A7C1CD0544856723288720FD171D
:10247000232AF7200546814513050009EF10B04ACD
:102480000946854513050009EF10F04983A7C1CD22
:102490003D47B76A008023A8E72C938841C79387FC
:1024A00041C71148938641C7938541C7378B008048
:1024B00022C009470D461385CA2837640080232EA1
:1024C0000B58EFF06F8A938641C7938541C7130578
:1024D00004231D471946EFE03FADAD479388CB7904
:1024E0009386CB799385CB79138501253EC03D48F2
:1024F0009387CB7939474146EFF00F87B775008056
:10250000C147B77800809386459A938848A7394891
:102510003D4735463EC0138501CE9387459A938546
:10252000459AEFF06F841385CA28EFF07FA1130658
:10253000042393050004E801EFE09FA1B757008052
:102540009384470B9387470BCAC601445ACAD6C225
:10255000DEC8BECA1149F25703D60400A28513850E
:1025600041CFEFE0FFCD864703D68400A285050466
:10257000138581C51374F40FEFE09FCC8904E31C2D
:1025800024FDEF20E07685451305000CEF10F03FA9
:102590001375F53F930770046305F52CB75500805C
:1025A0009385450DC247138507C9EFD09FEB894539
:1025B0001305000CEF10703D1375F53F9307700481
:1025C0006306F52AB75500809385C50EC24713856B
:1025D00007C9EFD01FE983A7C1CD03A48730C54742
:1025E0001377F40F6309F728B755008093854510DA
:1025F000C247138507C9EFD0DFE6C167938707F0AD
:102600007D8C856793870710630CF426B75500808F
:102610009385C511C247138507C9EFD09FE403A76F
:10262000C1CD85679387D73F2324F720C247B7558D
:10263000008093854513138507C9EFD09FE20146BB
:10264000814513054AC1EFE02FE401468545130596
:102650004AC1EFE06FE385473ECE9387018902CC04
:10266000BECE0545EF105025E2471306400685070C
:10267000C207C1833ECCB77700809385C7C1C247EC
:10268000138507C9EFD0DFD9D2473777008081465D
:1026900003A6C759930587CB81473307F600639696
:1026A000A71E81C6D24723AEE758D24703A7C75912
:1026B0008D4763FFE702B775008083C685CB13069D
:1026C000A00A639AC600138685CB034616001384BE
:1026D00085CB6309D61CD247B7550080377500807B
:1026E00093850515130505C923AE0758EFD07FD78D
:1026F00062479567938707E2E315F7F6F247377568
:102700000080814593C717003E86130545C13ECE24
:10271000EFE08FD702CCB1B7C247B75500809385A1
:10272000450C138507C9EFD0DFD3F5B2C247B755C3
:1027300000809385C50C138507C9EFD09FD221B4C3
:10274000CA85881063C79D00EF20A0769386B401E8
:10275000E9BCEF20007693867401014793F6F60FEB
:102760000546C1BCDD4763EF970113863CFF054872
:10277000930744730947930644731376F60F9385C2
:10278000CD797DB69307500263EF97011386BCFEA7
:1027900005489307CC8609479306CC861376F60F37
:1027A0009305CC8671B69307F00263EF9701138609
:1027B000BCFD05489307CC8609479306CC86137663
:1027C000F60F93054D8DADB69307D00363EF9701D8
:1027D00013863CFD05489387CB9309479386CB939B
:1027E0001376F60F9385CB93A1B69307700463E13C
:1027F000970313863CFCB775008005489387CB93FD
:1028000009479386CB931376F60F9385459A0DB6B9
:102810009307500563EF97011386BCFB05489307A8
:10282000CBA009479306CBA01376F60F9305CBA058
:1028300001B61386BCFAB775008005489307CBA094
:1028400009479306CBA01376F60F938545A7CDB421
:102850008D47054723020B00A302FB002382E400FF
:10286000ADBEB75500809385050E2DBBB7550080D2
:102870009385850FA1BBB7550080938505118DBB4E
:10288000B75500809385851271B3B7760080938623
:10289000C6C1BE9683C606002E9785072300D700C3
:1028A0008546E5BB8346240036D0E363D7E4034B7B
:1028B000340037790080231B09CA0547CA84631492
:1028C000EB0A377500801305C5CBEF108078AA841A
:1028D000377500801305E5CBEF10A0772A8AAA850B
:1028E0002685EF20A035835769CBB78900808946BC
:1028F00013871700231BE9CA138789DCBA9711468F
:10290000930569CB138589DC23806701EF10503D67
:1029100089462686930569CB138589DCEF10503CE8
:1029200089465286930569CB138589DCEF10503BAD
:10293000835669CBB7770080138689DC03A507C966
:10294000938707C9CC43EF20C028D24703A7C759B4
:1029500082571D8F814763F4E7006F10C06DD24727
:1029600023AEE75871B309476315EB023775008052
:102970001305C5CBEF10E06DAA84377500801305F1
:10298000E5CBEF10006D2A8AAA852685EF20A030BE
:1029900099BF6319FB0A377500801305D5CB03492E
:1029A0004400EF10006BAA89014B8D4A214AB357AE
:1029B0006941858B9375FB0F91CF564793171B0089
:1029C000BA9703D6070063E86A07F257138541CF29
:1029D000EFE01F87050BE31C4BFD03D764CB378A61
:1029E0000080930A8ADC93071700239BF4CA56974A
:1029F0008D4789460D46938564CB13058ADC2300F9
:102A0000F700EF10F02D83D764CB89464E861387ED
:102A10001700D697239BE4CA23802701938564CBB4
:102A200013058ADCEF10D02BB777008083D664CBF8
:102A300013068ADC21B78647F11593F5F50F138548
:102A400081C579B79547631EFB100149C149050946
:102A50001379F90FB77700800146CA85138547803F
:102A6000EFE0DF9DE31539FF8347540083494400BD
:102A700037690080B75A00802300F95A014A938AC7
:102A80008A1BB77B0080214BB3D74941858B91CB03
:102A9000B3874A0183C50700054613854B80EFE0E5
:102AA000FF99050AE3126AFF377500801305E5CB2D
:102AB000EF10205A2398A1C637750080130505CC66
:102AC000EF10005A377A0080B76B0080AA8623A8DF
:102AD000AB72054613058AC8B7150070EFD05FF1D9
:102AE00003D601C713058AC88545EFE00F8B130590
:102AF0008AC88545EFD07FFF03D764CB378A008033
:102B0000930A8ADC93071700239BF4CA56979547CC
:102B100089462146938564CB13058ADC2300F700A0
:102B2000EF10101C83D764CB03D601C7938564CB09
:102B30003387570193862700850723003701C20793
:102B40000347095AC183239BD4CAD69789461305E4
:102B50008ADC2380E700EF10B018914603A60B73C0
:102B600075BD99476315FB043775008085451305CE
:102B700085C8EFD0FFFC835769CBB78400808946B6
:102B800013871700231BE9CA138784DCBA97014611
:102B9000930569CB138584DC23806701EF10501403
:102BA000B7770080835669CB138684DC41BBBD4771
:102BB0006311FB04014681454145EF10C0560146B3
:102BC00085454145EF10205683A7C1CD23A00704BA
:102BD000835769CB13871700231BE9CA3789008005
:102BE000130789DCBA973D472380E70089460146F1
:102BF00041A89D47631CFB10854783494400231B64
:102C0000F9CA37890080230469DD9307F0058946F6
:102C100063EF37072946938564CB130589DCEF10F2
:102C2000300C4E868946938564CB130589DCEF1002
:102C3000300BC25786098946CE9703D60700938585
:102C400064CB130589DCEF10B009D2578946938510
:102C500064CBCE9703D60700130589DCEF1050082C
:102C6000A2578946938564CBCE9703D607001305F8
:102C700089DCEF10F006B2578946BE9903D60900E9
:102C8000938564CB130589DCEF1090059DA813068E
:102C90000030938564CB130589DCEF107004814903
:102CA000130A000CC2578946938564CBCE9703D68E
:102CB0000700130589DCEF10B002D25789469385CF
:102CC00064CBCE9703D60700130589DCEF105001C3
:102CD000A2578946938564CBCE9703D60700130588
:102CE00089DCEF10E07FB2578946938564CBCE979D
:102CF00003D60700130589DC8909EF10607EE39392
:102D000049FBB777008083D664CBA9A9A94763168E
:102D1000FB128547231BF9CA378A00803789008058
:102D2000894613068004938564CB130589DC130A56
:102D30000A5A8969230469DD130C8A09EF10407A65
:102D40009D4C93890980314D014B9377FB0F894B43
:102D500063E66C0193BB470093CB1B00931ABB0047
:102D6000B3FA3A01DE855285C20AEFD0DF9293DAD8
:102D70000A01D6855285EFD01F9CD6855285EFD0AB
:102D80009F9BD6855285EFD01F9B2AD2DE85528528
:102D9000EFD05F9512568946938564CB130589DC85
:102DA000050BEF10E073E312ABFB130ACA04E31D3B
:102DB0004CF9C169014AFD19114B83A7C1CD0545E5
:102DC00023A24725EF10402F83A7C1CD89469385C5
:102DD00064CB03A60724130589DC050A3376360184
:102DE000EF1000700545EF10202DE3186AFD054A2D
:102DF000914A8149939509015286C18113051004B6
:102E0000EF1060320545EF10202BD285130500042A
:102E1000EF10A0372A868946938564CB130589DC99
:102E2000EF10006C05458509EF100029E39459FD6A
:102E30008947E308FAEC094A6DBFA1476314FB0612
:102E40008345540003454400100AB7890080EF1001
:102E5000A037835769CB930569CB89461387170041
:102E6000231BE9CA138789DCBA9713060020138550
:102E700089DC2380670113090111EF106066130AD2
:102E80000131035609008946938564CB138589DC9B
:102E90000909EF10E064E3162AFFB777008083D6B4
:102EA00064CB59BCAD47631FFB148547231BF9CA8C
:102EB00037890080894613063003938564CB130558
:102EC00089DC230469DDEF10A0619647D0010C0A6C
:102ED0001385C728EFF06F929647CC098149138577
:102EE000C728EFF0EF93694A1C0ACE9703C6070084
:102EF0008546938564CB130589DC8509EF10405E18
:102F0000E39449FF81491D4ADC01CE9703C60700BF
:102F10008546938564CB130589DC8509EF10405CF9
:102F2000E39449FF8149214ADC09CE9703C6070093
:102F30008546938564CB130589DC8509EF10405ADB
:102F4000E39449FFE8012318010A2319010AEFD08D
:102F50005FFD2945EF10E014E801EFD01FF90C19CF
:102F6000E801EFD05FF19305210BE801EFD05FF4AA
:102F70000356010B8946938564CB130589DCEF105A
:102F800020560356210B8946938564CB130589DCB3
:102F9000EF100055B647854513850125EFD0BFDA00
:102FA000C6472AD28145138501CEEFD0DFD912560C
:102FB000AA898946938564CB130589DCEF104052BA
:102FC0004E868946938564CB130589DCEF1040510A
:102FD000B789008089451385095AEFD0CFEB814529
:102FE0001385095AEFD02FF581451385095AEFD083
:102FF0008FF42AD289451385095AEFD0AFEE89465E
:103000001256BDB9C147631EFB0A37750080130510
:10301000F5CB834A4400034A540083496400EF100F
:103020002004835769CBAA8B894613871700231B7B
:10303000E9CA37890080130789DCBA971D46938552
:1030400064CB130589DC23806701EF106049894751
:1030500063EC470563920A04D2854E85EF10E012B7
:10306000AA8B85465686938564CB130589DCEF10C1
:10307000204785465286938564CB130589DCEF1083
:10308000204685464E86938564CB130589DCEF1078
:10309000204591465E86EDB693950B015286C1811F
:1030A0004E85EF10400875BF03A7C1CD9397290047
:1030B000BA9763950A0083AB070065B723A0770131
:1030C0004DB7B5476314FB0A8145C809EFD02FCC33
:1030D0008145080AEFD02FCD835769CB8946130667
:1030E000400313871700231BE9CA378900801307A1
:1030F00089DCBA97938564CB130589DC238067014B
:10310000EF10003E83D664CB8147130689DCC145AE
:10311000C8093387F6003E95420703450500418301
:1031200032972300A7008507E394B7FE9387060133
:1031300093864603C20793950601C183180AC1818D
:10314000034807003305F6008507C2072300050181
:10315000C1830507E396F5FEC206C182239BD4CA4C
:10316000B7770080130689DC6FF04FFDCD476316FB
:10317000FB0C834A44008349540037690080130BD9
:103180004973014A1309000313554A009307950038
:10319000139517003E950A053E959375FA000E05A6
:1031A000050A014685055A95137AFA0FEFE00FA933
:1031B000E31C2AFD13D94A009307990013991700BD
:1031C0003E990A093E990E0913FAFA005A99050A1E
:1031D0000546D2854A85EFE06FA663800902139504
:1031E0005900330535410A054E950E05EF00706B09
:1031F0000146D2854A85EFE06FA483D764CB378937
:103200000080894613871700239BE4CA130789DCD3
:10321000BA9709464D47938564CB130589DC238013
:10322000E700EF10E02B85465686938564CB1305A7
:1032300089DCEF10E02A8546C1A8D147631CFB0456
:10324000B7690080014993894973130A0003135534
:10325000490093079500139517003E950A053E9582
:103260009375F9000E050509014685054E951379FC
:10327000F90FEFE0AF9CE31C49FD83D764CB37899E
:10328000008013871700239BE4CA130789DCBA97D1
:10329000514799BAD547631BFB068547231BF9CADB
:1032A0003789008089461946938564CB130589DCEC
:1032B000B7890080230469DDEF108022054681452F
:1032C0001385096DEFD05FABAA8A0D468145138542
:1032D000096DEFD07FAA2A8A014681451385096DC1
:1032E000EFD09FA989465686938564CBAA8913059A
:1032F00089DCEF10E01E89465286938564CB130566
:1033000089DCEF10E01D89464E869DBA9307B00315
:103310006314FB0283A7C1CD8349440023A6370D64
:103320008547231BF9CA378900809307B00323041C
:10333000F9DC89460546D5BD930710056310FB02ED
:1033400083A7C1CD8349440023A437098547231BA4
:10335000F9CA37890080230469DDE1BF9307400380
:10336000631DFB128547231BF9CA378900808946F4
:1033700013065002938564CB130589DC230469DDB1
:10338000EF10001683A7C1CD9146938564CB03A6A9
:10339000C70F130589DCEF10A01483A7C1CD914698
:1033A000938564CB03A6870F130589DCEF104013C8
:1033B00083A7C1CD8546938564CB03A6470C13052F
:1033C00089DCEF10E01183A7C1CD9146938564CBD2
:1033D00003A6470D130589DCEF10801083A7C1CD2C
:1033E0009146938564CB03A6870D130589DCEF1006
:1033F000200F83A7C1CD8546938564CB03A6870E96
:10340000130589DCEF10C00D83A7C1CD85469385D8
:1034100064CB03A6470E130589DCEF10600C83A76D
:10342000C1CD8546938564CB03A6470F130589DC80
:10343000EF10000B83A7C1CD8546938564CB03A60F
:10344000070F130589DCEF10A00983A7C1CD9146B2
:10345000938564CB03A6C70D130589DCEF104008E4
:1034600083A7C1CD9146938564CB03A6070E1305B0
:1034700089DCEF10E00683A7C1CD9146938564CB2C
:1034800003A68709130589DCEF10800583A7C1CD4A
:1034900003A6070A91466FF0AFFE93072003631956
:1034A000FB06377500801305C5CBEF00703B83A783
:1034B000C1CD8349B400034AA400AA8A23AA370BCA
:1034C00023A8A70C23A2470B13054006EF00D03E0C
:1034D000835769CB8946194613871700231BE9CA0E
:1034E00037890080130789DCBA97938564CB13056D
:1034F00089DC23806701EF00B07E91465686938574
:1035000064CB130589DCEF00B07D8546528631BB64
:10351000930750036311FB0683A7C1CD894621465B
:1035200083A7870D938564CB3EDB8547231BF9CAB0
:1035300037890080130589DC230469DDEF00507AA8
:103540005A569146938564CB130589DCEF00507978
:1035500083A7C1CD0547054523A0E70C23A4E70CAD
:10356000EF00303483A7C1CD23A0070C83A7870DBC
:103570003EDB5A5605B793077003631FFB0003A792
:10358000C1CD8547231BF9CA232AF7083789008054
:10359000230469DD6FF08FE593073003631FFB1E83
:1035A00083A7C1CDB7890080930569CB03A7470CDA
:1035B00003A7470D83A7870D894619463EDD13856E
:1035C00089DC8547231BF9CA238469DDEF0050712C
:1035D0006A56930569CB9146138589DCEF005070DC
:1035E00083A7C1CD930569CB854603A6870E1385B6
:1035F00089DCB77A0080EF00B06E83A7C1CD930558
:1036000069CB854603A6470E138589DC377A00808F
:10361000EF00106D93870AC9CC43835669CB03A58D
:103620000AC9138689DC37890080EF10805A416609
:103630009305C9DB894679161305CADB231E09DA0F
:10364000EF00106A8357C9DBB78500800547239CCC
:10365000F5588907231EF9DA83A7C1CDC16B130D75
:10366000000823A0E70CAE8D054B138CFBFF83A74E
:10367000C1CD130540067D1D23A6670FEF00D023A3
:1036800083A7C1CD13054006420D03A7C70D135DE7
:103690000D013ADF83A7070EBEC1EF00F0217A5675
:1036A00089469305C9DB41821305CADBEF005063ED
:1036B0007A5689469305C9DB337686011305CADB42
:1036C000EF0010620E4689469305C9DB418213055F
:1036D000CADBEF00F0600E4689469305C9DB3376FE
:1036E00086011305CADBEF00B05FE3120DF8035645
:1036F000C9DB894693858D5971161305CADBEF0026
:10370000305E0356C9DB9305CADB13850AC9EFC0D7
:10371000DFCD89461386BBFF9305C9DB1305CADBE2
:10372000231E09DAEF00D05B09469305CADB138537
:103730000AC9EFC09FCB83A7C1CD8946094623A004
:10374000070C938564CB93073003138589DC2384AE
:10375000F9DC239B64CBEF00B05883A7C1CD85462D
:10376000938564CB03A6870E138589DCEF00505741
:1037700083A7C1CD938564CB138589DC03A6470E4F
:103780008546EF00F05503D664CB938589DC13851D
:103790000AC9EFC09FC56FF04F9B9307E003631DFD
:1037A000FB08377500801305C5CBEF00900A8146F2
:1037B0002A89014681450545EF0090110146814562
:1037C0004A85EF001013EF0050142945EF00700DEB
:1037D00083A7C1CD814601468145014503A947160E
:1037E000EF00100F83D764CBB7890080938564CB3B
:1037F00013871700239BE4CA138789DCBA971385C4
:1038000089DC8946114623806701EF00704D13560D
:103810000901938564CB138589DC8946EF00504C00
:103820001316090189464182938564CB138589DC8F
:10383000EF00104B6FF06FE69307F0036319FB087E
:10384000377500801305C5CBEF00B000AA89377526
:1038500000801305E5CBEF00C07F81462A8905462D
:1038600081450545EF00D006014681454E85EF00B4
:103870005008054681454A85EF00B007EF00F00883
:103880008146014681450145EF00900483D764CB12
:10389000378A0080894613871700239BE4CA1307E1
:1038A0008ADCBA971146938564CB13058ADC2380A2
:1038B0006701EF00F04289464E86938564CB13057D
:1038C0008ADCEF00F04189464A866FF02F95930716
:1038D00070066316FB00EFD05FE96FF00F87930768
:1038E00080066316FB0A377500801305C5CBEF0011
:1038F00040762A8A377500801305E5CBEF006075A6
:10390000AA8A37750080130505CCEF00607523A6E1
:10391000A1C037750080130545CCEF006074138992
:10392000C1C02322A90037750080130585CCEF00A4
:10393000207303D764CB2324A90037890080930721
:103940001700930689DC3697C20793068006C18369
:103950002300D700B779008089460146938564CB60
:10396000130589DC239BF4CA2396F9C8EF0050376E
:1039700081461306F00FD6855285EF00307203D6CC
:1039800064CB89469385C9C875166FF0AFAF9307AE
:1039900090066312FB4A83A7C1CD854A054523AC37
:1039A000573BEF00607183A7C1CD377500801305C9
:1039B000E5CB23AC073A83475400034A44003EDC7E
:1039C00083578103BEC4EF00C0682A8B377500801F
:1039D000130505CCEF00E067AA8B3775008013054F
:1039E00025CCEF00E0672A8D37750080130565CC84
:1039F000EF00006723A6A1C0377500801305A5CC92
:103A0000EF0000669384C1C0C8C0377500801305FD
:103A1000E5CCEF00E0648347A40188C437750080DB
:103A2000130545CD3ED28349B401EF008062834740
:103A3000E401AA8D13F717006307073C03A7C1CD64
:103A40002320572D898B03A7C1CD6383073C85476E
:103A50002322F72CC20993D909010146CE853145AD
:103A6000EF00606CEF00D01A814713864100B14629
:103A700013F7C7FF329718438507E39BD7FE014C26
:103A8000938A01C08547B3978701939C070192579A
:103A90001307200693DC0C01636FF7366686BE853C
:103AA0005945EF00B0106686D2853545EF001010FD
:103AB000050CB147E318FCFC8547B75A0080A38189
:103AC000FA1CEF00F014014681453D45EF00A0656A
:103AD0000146DE850D45EF0000650146DA8511459A
:103AE000EF00606483A5410005462D45C205C181F4
:103AF000EF00606383A5410005463945C181EF00B1
:103B0000806293844100CC4005463545C205C181A1
:103B1000EF006061CC4009462D45C181EF00A060F7
:103B20008C4409463945C205C181EF00C05F8C4411
:103B300009463545C181EF00005FA645014629458C
:103B4000EF00605ECE8501463145EF00C05D83A782
:103B5000C1CDD68923A2072023AC77119C4481E7ED
:103B6000DC40C18381C78947A381F91C83C5391C07
:103B70000D45EF00806183C5391CAA8A3145EF00ED
:103B8000C0609377F50FAA8B639D0728B747414C18
:103B9000938727552328F110896793870702377C7D
:103BA000008003576CCBB7840080231AF110938CEC
:103BB00084DC93071700231BFCCA669793079006C3
:103BC00089461306300293056CCB138584DC2300F1
:103BD000F700230B0110EF00B01083576CCB894620
:103BE00056861387170093056CCBE697138584DC04
:103BF000231BECCA23807701EF00900E5A8689467A
:103C000093056CCB138584DCEF00900D03A6C1C037
:103C1000914693056CCB138584DCEF00700C5286C3
:103C2000894693056CCB138584DCEF00700B6256DC
:103C3000894693056CCB138584DCEF00700A8357AB
:103C40006CCB0147628A138B84DC21460C0AB38655
:103C5000E700BA95C20683C50500C182DA962380C3
:103C6000B6000507E314C7FE13879700A107231BBF
:103C7000EACAC2071257C183DA9791466A8693054A
:103C80006ACB138584DC2380E700EF00700583C5D1
:103C9000391C2D45096CEF00404F2A868946930553
:103CA0006ACB138584DCEF00B00383C5391C39452A
:103CB0008A0AEF00804D2A86894693056ACB1385D0
:103CC00084DCEF00F00183C5391C3545950AEF000F
:103CD000C04B2A86894693056ACB138584DCEF00A6
:103CE000300083C5391C3145B7790080EF00E049C9
:103CF0002A86894693056ACB138584DCEF00407ED3
:103D000083576ACB03A509C9138684DC9386170001
:103D1000DA9723800700938709C9CC43C206C18282
:103D2000231BDACAEF00F06A13050C71EF00C038EC
:103D300083A7C1CD3D4723A0E712EF00506CEF00F1
:103D4000106C13050C71EF00203783A7C1CD054916
:103D5000014623A2272193F5FB0F3D45EF00A03C30
:103D6000B7870080239E07DA93971D00EE978E0792
:103D7000EE97378700808607232EF770B78700807D
:103D800023A207DCB787008023A0577BB77700808A
:103D900023ACA7DBCC09B7770080C80123A007C8F4
:103DA00082C382CBEF00F00993079006894615463F
:103DB00093056ACB138584DC2384F4DC231B2ACB94
:103DC000EF00007283576ACB5E4691461387170057
:103DD0003E9BB307CD4093B71700231BEACA2300CD
:103DE000FB006313CD001E4693056ACB138584DC6C
:103DF000EF00006FB785008003566ACB938585DCA2
:103E0000138509C979B203A7C1CD2320072C1DB999
:103E10002322072C81B1B3065C01668683C50600A8
:103E200041B1B7574C53938707552328F110956735
:103E300093875724ADB39307D0066304FB006FE06C
:103E4000DFB0377500801305C5CB192C23A6A1C0A0
:103E500037750080130505CC21241389C1C02322A6
:103E6000A90037750080130545CCDD2A2324A9005D
:103E7000EF00005A03D764CB37890080930689DCB2
:103E800093071700C207C1833697B7790080894628
:103E90000146938564CB130589DC239BF4CA230078
:103EA00067012396F9C8EF00A063014685453145B7
:103EB000EF006027930D0111EE874EDC7D572390B4
:103EC000E700940E8907E39CF6FE9387018F930920
:103ED00000038544938B4100BEC4138D09FD938775
:103EE000019B137DFD0FBECC63413D05894793893E
:103EF0000903639AF402B774008003D60D00894663
:103F0000938564CB130589DCEF00805D890D9C0EE1
:103F1000E395B7FF03D664CBE257894675169385C0
:103F2000C7C86FE03FD689444DBF85476395F40EFF
:103F3000FD4763EBA70D03A64100B397A401F18FE2
:103F4000B337F00093F7F70FC5CFF647930500039B
:103F50006A85EA9783CC0700A6472312010C939A3F
:103F60001C00D69783D70700231B010CC20C231318
:103F7000F10C2314F10CE64793DC0C0137AB07007E
:103F8000D69783D70700EE9A014A231AF10C231C17
:103F9000F10CEF00706D9375F50F26861305000583
:103FA000592293870C063ED2130B0B12DC01338689
:103FB0004701835506006685938A0A0CEF00104876
:103FC000DC0933864701835506001255090AEF00C4
:103FD000F0465A857D202686854513051005A122C9
:103FE0001545D928A6851305200545222390AAF456
:103FF00026868145130510053D221943E3186AFA08
:10400000050D137DFD0FCDB593070DFE03A64B00E7
:10401000B397F4002DB71306F0036369A60103A656
:104020004B0093050DFEB397B70011BF03A68B009D
:1040300093050DFCCDBF8256BE96A29603C6060020
:10404000B306F4008507C2072380C600C1836FE072
:104050009F908347150003450500A2075D8D828070
:104060004111814711473306F500034606007400ED
:10407000BE962380C6008507E397E7FE32454101DF
:10408000828083A7C1CD411102C60547F8C73247D8
:104090006366A70023A6070441018280B84B3AC695
:1040A000FDB7EF02B054B16593850535EF001057A9
:1040B000EFF03FFD6F00D055EF02505393171500FE
:1040C000AA978E073E950605EFF0BFFB6F00505490
:1040D000720589E94206558E83A7C1CD518D23A46F
:1040E000A714828022069206558E498E139585016B
:1040F000E5B783A7C1CD3336C00013063605C20528
:104100000A064D8D3E9608C28280EF02304E316520
:1041100013050535EFF0FFF683A7C1CD054723A2B0
:10412000E7146F00F04E0547636FC70083A7C1CD4A
:1041300023A6B71823A4A71823A0E71803A7471896
:1041400075FF09C6828089476310F60483A7C1CD35
:10415000054723A6B71C23A4A71C23A0E71C03A77D
:10416000471C75FF15E223A6B71823A4A71823A69A
:10417000B71C23A4A71C054723ACE71C03A7471CB7
:1041800075FF03A7471875FF8280094783A7C1CD34
:1041900013650510638FE50023A4A718054723A026
:1041A000E71803A7471875FF03A5C7184205418103
:1041B000828023A4A71C054723A0E71C03A7471C54
:1041C00075FF03A5C71CDDB7EF02504206058589C0
:1041D000C98D3289130530020546EFF0DFF405463C
:1041E000854513050002EFF01FF4054681451305D0
:1041F0000002EFF05FF3316513050535EFF07FE85E
:10420000014493040010931504010546C181130570
:104210001002EFF05FF1854513052002EFF0FFF685
:1042200093171400CA972390A7000504E31D94FC7C
:104230006F00103EEF02F0391389F5FF3E84360916
:1042400099673379F9009317F5005D8E4111336951
:10425000C900AA89228625452E8A8145B6843AC698
:10426000EFF07FEC22869305F00F2145EFF0BFEBD6
:10427000228681451945EFF01FEB32472286214502
:104280001347F7FF9375F70FEFF0FFE942091305A6
:10429000800C13590901EFF0DFDEBD4A7D5BB35599
:1042A0005941228685891945EFF0FFE71305800CF7
:1042B000EFF03FDD228685452545EFF0DFE613056B
:1042C000800CEFF01FDC228681452545FD1AEFF0BA
:1042D0009FE5E3966AFD85476397F9002286854549
:1042E0001D45EFF05FE4269A854A7D5B8DA01D4950
:1042F000639B090083C5040022861945B3D5254177
:104300008589EFF05FE21305800CEFF09FD7639E85
:104310005901A2851945EFF05FE701C903C7040001
:10432000B3972901D98F2380F4002286854525453E
:10433000EFF07FDF1305800CEFF0BFD422868145BC
:1043400025457D19EFF03FDEE31469FB8504E3901A
:1043500044FB1305800CEFF0DFD222869305F00FAB
:104360002145EFF05FDC228681451945EFF0BFDB88
:1043700041016F005029EF02D0253A84198013774C
:10438000F703AA842E89B289368A1374F40301C70D
:104390008547EFF03FEA09C889472287D2864E86D3
:1043A000CA852685EFF01FE96F00F025EF02102483
:1043B00001113284A307B10032879306F1002A86E7
:1043C00085450145EFF03FFB8547740822871306BA
:1043D000F00F85450145230EF100EFF0DFF905618F
:1043E0006F001023EF02902005473317B7004111EB
:1043F00042079306F1002A86418385450545A307B8
:104400000100EFF05FF70345F10041016F0050201C
:10441000411122C626C44AC24EC023A2010093877E
:10442000410023A2070023A407000146938841000E
:1044300005481383C1C0938E018993020006FD4392
:104440001304F003930F00028D44931526009A95F0
:10445000131E560001452E8F9C41B316A800F58F00
:10446000A5CB8147B389FE0083C9090013F9F70F73
:10447000639DC90563E6230383A64100B317F800D3
:10448000D58F23A2F1000505050EE317F5FD0506FE
:10449000E31D96FA3244A2441249824941018280C6
:1044A000636B240183A648008117B317F800D58FEA
:1044B00023A2F800C9BF83A68800938707FCB3171F
:1044C000F800D58F23A4F8007DBF8507E39C57F83B
:1044D00083270F0093C6F6FFFD8E2320DF0065B70C
:1044E000814763E3D700828003D7050013081700D4
:1044F00023900501139837002A9733580601850742
:104500002300070193F7F70FE9BFEF02300B377471
:1045100000803779008041112E8CB28C89462A8622
:104520002A8A930564CB130589C9231B04CAEFF0BB
:104530003FFB835764CB130789C98149B386E700E2
:1045400023808601938627008507C207C183BA9717
:1045500023809701856793878738231BD4CA8144BA
:10456000130D89C93EC4A14D335B3A41137B1B0037
:1045700063090B088547B39A370113960A014182F4
:104580009305C0030145EFF07FE2A94793FBF90FC4
:10459000DE8501453EC6EFF0FFE4E1476306F50026
:1045A000B247FD17F5F7014BDE850145EFF09FE3BC
:1045B000835764CBDE8513871700EA972380A70013
:1045C0000545231BE4CAEFF0FFE1835764CB138753
:1045D0001700EA97231BE4CA2380A70063160B0089
:1045E000B3E49A00C204C1802245EFF09FA9DE85A2
:1045F0000545EFF03FDF6306B501B3E49A00C2045E
:10460000C1808509B147E391F9F652869305F0031D
:104610001545EFF0BFD95286E6855945EFF01FD911
:104620005286E2853545EFF07FD8130589C9894662
:104630002686930564CBEFF0BFEA268541016F0023
:10464000A07BEF022078B777008003A707C88547D3
:1046500041112A8A2E8BB78A00800144631FF70E0E
:10466000B777008083A40A7A83A587DB4164268517
:10467000EF00C07A130404A02A896378A400A685F9
:104680002285EF00B0003309A44083A54100054610
:104690002D45C205C181EFF01FA983A54100054644
:1046A0003945C181EFF03FA8138441004C400546D5
:1046B0003545C205C181EFF01FA74C4009462D4585
:1046C000C181EFF05FA60C4409463945C205C1819E
:1046D000EFF07FA50C4409463545C181B7090200BA
:1046E000B164EFF05FA4FD19378C0080938404352A
:1046F00083A7C1CD83A747113EC21244337434014E
:10470000637F240183270A0085072320FA000327FB
:10471000CC7163D6E7002685EFF0BF96D1BF054682
:1047200081452D45EFF03FA0054681453945EFF025
:104730009F9F054681453545EFF0FF9E094681451F
:104740002D45EFF05F9E094681453945EFF0BF9D4D
:10475000094681453545EFF01F9DC16BB784008048
:1047600037790080938CFBFF83A70A7A6379F4067C
:1047700003A7C1CD032747113AC422443E043D801C
:10478000637FF40483270A0037870080850723208E
:10479000FA000327C77163CCE702B785008037743E
:1047A00000804166239E05DA71169385C5DB1305EB
:1047B000C4DB8946EFF0DFD23775008009469305E8
:1047C000C4DB130505C9EFB05FC2410105AD31651A
:1047D00013050535EFF0FF8AA2894E8471B789462B
:1047E0001386EBFF9385C4DB1305C9DB239E04DA34
:1047F000EFF01FCF03A60A7A89469385C4DB0A0629
:104800001305C9DBEFF0DFCDA289054D03A70A7AB6
:10481000B307344163C8E70403D6C4DB37740080B0
:104820009305C9DB130504C9EFB03FBC83270B0018
:104830003777008085072320FB00032787DBE3CE43
:10484000E7F841666D169385C4DB1305C9DB89461D
:10485000239E04DAEFF0DFC809469305C9DB130590
:1048600004C995B783A7C1CD9385C4DB1305C9DB04
:1048700023A0A71183A747108946FD193EC63246DB
:104880004182EFF0FFC5324689469385C4DB33761B
:1048900096011305C9DBEFF0BFC48DBFEF020052D4
:1048A0009387410023A20100130101AF23A2070057
:1048B0002A8436C423A407002EC2328AEFF05FB5E3
:1048C000130600188145080902D402D6712D13067B
:1048D00000188145080C492D931414001306001884
:1048E0008145A294080F49258E04A2941306000660
:1048F00081450818952D8604930C810293090003C5
:10490000814A0544138B4100938B0189FD4D22861A
:1049100085457545EFF03F81A2855945EFF0FF864B
:10492000A2855D45EFF07F86A2856145EFF0FF85AA
:104930002A8CA2856545EFF05F8593170C01138CD7
:1049400009FDC98F137CFC0F014D12476342ED0C2A
:104950008947850A93890903910C6319F40A93071F
:10496000F00B63F04721B78400800144FD4A37799A
:104970000080938484DC938BC1C0054A130C00062D
:104980009377F40F63E08A1C03A7C1C0B3178A00B2
:10499000F98FA5CB835769CB9319240091461387D0
:1049A0001700A697238087001C09CE979043930594
:1049B00069CB2685231BE9CAEFF09FB21C0CCE976A
:1049C00090439146930569CB2685EFF07FB11C0F8C
:1049D000BE9903A609009146930569CB2685EFF0A1
:1049E0003FB01C18A29783C70700130701519146D7
:1049F0008A07BA9703A687B1930569CB2685EFF09E
:104A00003FAE0504E31E84F701455DAA094401B7E2
:104A100026853EC8EFF0EFE6228685457545EFF026
:104A20008FF0A2855945EFF04FF6A2855D45EFF076
:104A3000CFF5A2856145EFF04FF52AC6A285654501
:104A4000EFF0AFF4324803A70C00C24742083368C6
:104A5000A800B307F740C29723A0FC006287054E69
:104A60006348370193081D0013FDF80FC287F1BD9D
:104A7000B387EB0083C6070093070151B6972380E5
:104A800057B36311C40B63E8ED0803A64100B317E5
:104A9000E400F18FB337F00093F7F70FADCB3A8511
:104AA0009305000342CE36CC3ACA7D2E22869375FA
:104AB000F50F5545EFF02FE713052003EFF06FDCFE
:104AC000A2856945EFF06FEC2AC8A2856D45EFF02D
:104AD000CFEB2AC6A2857145EFF02FEBE246930794
:104AE0000151B24E8A06BE9603A606B8C247724866
:104AF00052473E9683A706D023A0C6B8054EF69728
:104B000023A0F6D083A706E83E9523A0A6E80507D4
:104B10001377F70FB1B7930707FE03264B00B317C0
:104B2000F40085BF9307F00363E9E70003264B0019
:104B3000930707FEB317FE00A9BF03268B00930758
:104B400007FCCDBF138707FE1377F70FFD8B63E7D5
:104B5000EA0003A74B00B317FA001DBD03A78B00A3
:104B6000DDBF93050006528501261374F50F8147BA
:104B7000130700066319F4049305000652857D2C83
:104B800093070151131924003E99832509D0937985
:104B9000F50F0545330535415124832509B8AA840D
:104BA0004E85AD2C930701513E94834704B2130701
:104BB000015126958A07BA9783A787B122471CC35C
:104BC0001301015115AC850793F7F70FE394E7FA4A
:104BD00025BDEF02A02141112EC6B75500802AC481
:104BE0009385C5192800328436C2EFB09F8792465C
:104BF0002800A2853686EFB04FFF410111ACEF02CD
:104C0000E01E014681454145EFF0EFD183A7C1CDBC
:104C10001305401F23A60728EFF0AFC683A7C1CD19
:104C200005471305401F23A6E728EFF08FC501466F
:104C300085454145EFF02FCF0145D9AAEF02001B72
:104C40009307F0052A84AE8463E6A702B767008065
:104C5000131735009387072ABA972E86884383C592
:104C600057000604EFC0CFDD9387018F3E942310D9
:104C7000940079AA130405FA13173400938741D0DE
:104C8000BA972E86884383C557000604EFC04FDBD2
:104C90009387019BE1BFEF0260159307F0052A841B
:104CA000AE8463E6A702B7670080131735009387C9
:104CB000072ABA972E86884383C547000604EFC0AB
:104CC0002FD8938701A73E942310940091A2130438
:104CD00005FA13173400938741D0BA972E8688437C
:104CE00083C547000604EFC0AFD5938701B3E1BF8A
:104CF000EF02200E01440549B149B3148900C204F2
:104D0000C180268681455945EFF04FEA26868145C8
:104D100035450504EFF08FE9E31134FF0146A9455D
:104D20000D45EFF04FC0014695451145EFF0AFBF7F
:104D300041649305F4FF05462D45EFF0CFBE930582
:104D4000F4FF05463945EFF00FBE9305F4FF054625
:104D50003545EFF04FBD9305F4FF09462D45EFF0C3
:104D60008FBC9305F4FF09463945EFF0CFBB93059F
:104D7000F4FF09463545EFF00FBB01468145294553
:104D8000EFF06FBA014685453145EFF0CFB983A703
:104D9000C1CD05651307F5FF23A2072023A4E72053
:104DA000294723ACE71013058538EFF08FADEFF0FE
:104DB0001FE583A7C1CD23A22721B1A039710143EB
:104DC0006EC619A0397141536AC866CA62CC5ECEFC
:104DD00019A0397101535AD056D252D44ED64AD85E
:104DE00026DA22DC06DE33016140828241114AC0AC
:104DF00026C222C406C68282B24D4101024D924CA7
:104E0000224CB24B4101024B924A224AB249410123
:104E1000024992442244B240410182802A860145DF
:104E200093F6150091C2329585810606F5F98280C8
:104E300000000000634E050263C305042E86AA85A8
:104E40007D5515C285466378B6006356C0000606D8
:104E50008606E36CB6FE014563E4C500918D558D71
:104E600085820582F5FA82808682C93F2E858282FC
:104E70003305A04063D70500B305B040C1B7B30503
:104E8000B0408682653F3305A0408282868263C738
:104E90000500634905005D372E858282B305B04069
:104EA000E35B05FE3305A040513F3305B0408282ED
:104EB0000000B3C7A5008D8B3307C50081E78D4780
:104EC00063EEC700AA876370E50A83C605008507FD
:104ED0008505A38FD7FEE3EAE7FE8280937635004F
:104EE000AA8791CA83C6050085078505A38FD7FECB
:104EF00093F63700FDB79376C7FF138606FE63F07F
:104F0000C70683A3050083A2450083AF850003AFD6
:104F1000C50083AE050103AE450103A3850183A847
:104F2000C5019385450223A0770003A8C5FF23A2EE
:104F3000570023A4F70123A6E70123A8D70123AA3A
:104F4000C70123AC670023AE17019387470223AE46
:104F500007FF75B790419107910523AEC7FEE3EBBC
:104F6000D7FEE3E4E7F682803D432A876373C302FA
:104F70009377F700BDEFADE5937606FF3D8ABA96CD
:104F80000CC34CC30CC74CC74107E36BD7FE11E2FF
:104F90008280B306C3408A06970200009696678017
:104FA000A6002307B700A306B7002306B700A30592
:104FB000B7002305B700A304B7002304B700A30379
:104FC000B7002303B700A302B7002302B700A30171
:104FD000B7002301B700A300B7002300B700828009
:104FE00093F5F50F93968500D58D93960501D58D94
:104FF00061B7939627009702000096968682E78015
:1050000086FA9680C1171D8F3E96E374C3F8A5B744
:1050100068656C6C6F0000000001020408102040FD
:105020008001020408102040800000000000000001
:10503000140000001C000000240000002C000000F0
:10504000340000003C000000440000004C00000060
:10505000540000005C000000640000006C000000D0
:10506000740000007C000000840000008C00000040
:1050700000000000100000001800000020000000E8
:105080002800000030000000380000004000000050
:1050900048000000500000005800000060000000C0
:1050A0006800000070000000780000008000000030
:1050B00088000000E803E803E803E803E803E803E6
:1050C000E803E80343414C204F4B0A004856204F69
:1050D0004B0A0000524F432D3E43616C20580A009A
:1050E000524F432D3E43616C0A000000524F432D46
:1050F0003E485620580A0000524F432D3E48560A5B
:105100000000000043414C2D3E524F4320580A00FE
:1051100043414C2D3E524F430A00000048562D3E5D
:10512000524F4320580A000048562D3E524F430A22
:1051300000000000496E697469616C697A61746984
:105140006F6E20636F6D706C6574656400000000A5
:1051500050726F626C656D2073796E6368726F6EEA
:10516000697A696E6720636F6D6D616E640A000015
:105170000A0D2257656C636F6D6520746F2074682B
:105180006520524F43220A09202D205365616E206D
:10519000436F6E6E6572790A000000006D6F6E6974
:1051A000746F72696E670A00000000000000000062
:0851B00001020304090A0B0CC3
:0851B8000109020A030B040CBB
:1051C000F5F2F40100000000000000000000000003
:1051D000680200806C02008070020080740200800F
:1051E000780200807C0200808002008084020080BF
:1051F000880200808C02008090020080940200806F
:10520000980200809C020080A0020080A40200801E
:10521000A8020080AC020080B0020080B4020080CE
:10522000B8020080BC020080C0020080C40200807E
:10523000C8020080CC020080D0020080D40200802E
:10524000D8020080DC020080E0020080E4020080DE
:105250005B554F49433D37312B251F19130D07016E
:105260005A544E48423C36302A241E18120C06006E
:105270005D57514B453F39332D27211B150F09032E
:105280005E58524C46403A342E28221C16100A040E
:105290005F59534D47413B352C26201A140E080206
:1052A0005C56504A443E38322F29231D17110B05F6
:1052B0007201720172017201720172017201720156
:1052C0007201720172017201720172017201720146
:1052D0007201720172017201720172017201720136
:1052E0007201720172017201720172017201720126
:1052F0007201720172017201720172017201720116
:105300007201720172017201720172017201720105
:1053100072017201720172017201720172017201F5
:1053200072017201720172017201720172017201E5
:1053300072017201720172017201720172017201D5
:1053400072017201720172017201720172017201C5
:1053500072017201720172017201720172017201B5
:1053600072017201720172017201720172017201A5
:105370007201720172017201720172017201720195
:105380007201720172017201720172017201720185
:105390007201720172017201720172017201720175
:1053A0007201720172017201720172017201720165
:1053B0007201720172017201720172017201720155
:1053C0007201720172017201720172017201720145
:1053D0007201720172017201720172017201720135
:1053E0007201720172017201720172017201720125
:1053F0007201720172017201720172017201720115
:105400007201720172017201720172017201720104
:1054100072017201720172017201720172017201F4
:1054200072017201720172017201720172017201E4
:10543000A401B4019A01D0019F01B501BE01A301ED
:10544000A101BC019C019F01B5019F01A201A7011F
:10545000A401BE01BA01B201B601CA01A401A901A9
:10546000C101AC01BE01AE01C401C601B701BD015D
:10547000A401CA01AB01A101A7019E01BF01CB019B
:10548000B101A201C701B4019C019B019E019901D8
:10549000A301A701C201AA014001C0018F01A5011A
:1054A0009E01BF01C901A801C8019D019B01C10165
:1054B000B801A101A801C001A2019C01C901C60156
:1054C0009901AF01B501C701A001B001BE01C10141
:1054D000BD01BB01A801B4019801BA01BB01B9012A
:1054E000A601B601B801B401C901B701A201B50115
:1054F000BB01AE01AA01B901BC01C301C001B401E5
:10550000A101B501B701B301BE01BA01C001A801F3
:105510009C01BC01BA01BF01C101B801C401BB01BA
:10552000BB01B501B801B301AA01B501B901B801C8
:10553000AF01C101C501BC01C401B301BE01B0018D
:10554000B801BD01B301B201B701B501B701B201A4
:10555000B801B201AB01A7014001B001BD01AE012C
:10556000B201B501B401BA01B401B401B101C7017E
:10557000BB01BA01BB01BD01A801B201B801B7016D
:10558000BA01B501C201A301B801BE01C501C20142
:10559000B201B101C301B201A801B601AC01AD0174
:1055A000BB01A901B201AD01B201C801B601C80138
:040000058000000077
:00000001FF
